{
  "contractName": "MyNFT",
  "abi": [
    {
      "inputs": [
        {
          "internalType": "string",
          "name": "_name",
          "type": "string"
        },
        {
          "internalType": "string",
          "name": "_symbol",
          "type": "string"
        },
        {
          "internalType": "uint256",
          "name": "_maxTokens",
          "type": "uint256"
        }
      ],
      "stateMutability": "nonpayable",
      "type": "constructor"
    },
    {
      "anonymous": false,
      "inputs": [
        {
          "indexed": true,
          "internalType": "address",
          "name": "owner",
          "type": "address"
        },
        {
          "indexed": true,
          "internalType": "address",
          "name": "approved",
          "type": "address"
        },
        {
          "indexed": true,
          "internalType": "uint256",
          "name": "tokenId",
          "type": "uint256"
        }
      ],
      "name": "Approval",
      "type": "event"
    },
    {
      "anonymous": false,
      "inputs": [
        {
          "indexed": true,
          "internalType": "address",
          "name": "owner",
          "type": "address"
        },
        {
          "indexed": true,
          "internalType": "address",
          "name": "operator",
          "type": "address"
        },
        {
          "indexed": false,
          "internalType": "bool",
          "name": "approved",
          "type": "bool"
        }
      ],
      "name": "ApprovalForAll",
      "type": "event"
    },
    {
      "anonymous": false,
      "inputs": [
        {
          "indexed": true,
          "internalType": "address",
          "name": "from",
          "type": "address"
        },
        {
          "indexed": true,
          "internalType": "address",
          "name": "to",
          "type": "address"
        },
        {
          "indexed": true,
          "internalType": "uint256",
          "name": "tokenId",
          "type": "uint256"
        }
      ],
      "name": "Transfer",
      "type": "event"
    },
    {
      "inputs": [
        {
          "internalType": "address",
          "name": "to",
          "type": "address"
        },
        {
          "internalType": "uint256",
          "name": "tokenId",
          "type": "uint256"
        }
      ],
      "name": "approve",
      "outputs": [],
      "stateMutability": "nonpayable",
      "type": "function"
    },
    {
      "inputs": [
        {
          "internalType": "address",
          "name": "owner",
          "type": "address"
        }
      ],
      "name": "balanceOf",
      "outputs": [
        {
          "internalType": "uint256",
          "name": "",
          "type": "uint256"
        }
      ],
      "stateMutability": "view",
      "type": "function",
      "constant": true
    },
    {
      "inputs": [
        {
          "internalType": "uint256",
          "name": "tokenId",
          "type": "uint256"
        }
      ],
      "name": "getApproved",
      "outputs": [
        {
          "internalType": "address",
          "name": "",
          "type": "address"
        }
      ],
      "stateMutability": "view",
      "type": "function",
      "constant": true
    },
    {
      "inputs": [
        {
          "internalType": "address",
          "name": "owner",
          "type": "address"
        },
        {
          "internalType": "address",
          "name": "operator",
          "type": "address"
        }
      ],
      "name": "isApprovedForAll",
      "outputs": [
        {
          "internalType": "bool",
          "name": "",
          "type": "bool"
        }
      ],
      "stateMutability": "view",
      "type": "function",
      "constant": true
    },
    {
      "inputs": [],
      "name": "maxTokens",
      "outputs": [
        {
          "internalType": "uint256",
          "name": "",
          "type": "uint256"
        }
      ],
      "stateMutability": "view",
      "type": "function",
      "constant": true
    },
    {
      "inputs": [],
      "name": "mintPrice",
      "outputs": [
        {
          "internalType": "uint256",
          "name": "",
          "type": "uint256"
        }
      ],
      "stateMutability": "view",
      "type": "function",
      "constant": true
    },
    {
      "inputs": [],
      "name": "name",
      "outputs": [
        {
          "internalType": "string",
          "name": "",
          "type": "string"
        }
      ],
      "stateMutability": "view",
      "type": "function",
      "constant": true
    },
    {
      "inputs": [
        {
          "internalType": "uint256",
          "name": "tokenId",
          "type": "uint256"
        }
      ],
      "name": "ownerOf",
      "outputs": [
        {
          "internalType": "address",
          "name": "",
          "type": "address"
        }
      ],
      "stateMutability": "view",
      "type": "function",
      "constant": true
    },
    {
      "inputs": [
        {
          "internalType": "address",
          "name": "from",
          "type": "address"
        },
        {
          "internalType": "address",
          "name": "to",
          "type": "address"
        },
        {
          "internalType": "uint256",
          "name": "tokenId",
          "type": "uint256"
        }
      ],
      "name": "safeTransferFrom",
      "outputs": [],
      "stateMutability": "nonpayable",
      "type": "function"
    },
    {
      "inputs": [
        {
          "internalType": "address",
          "name": "from",
          "type": "address"
        },
        {
          "internalType": "address",
          "name": "to",
          "type": "address"
        },
        {
          "internalType": "uint256",
          "name": "tokenId",
          "type": "uint256"
        },
        {
          "internalType": "bytes",
          "name": "_data",
          "type": "bytes"
        }
      ],
      "name": "safeTransferFrom",
      "outputs": [],
      "stateMutability": "nonpayable",
      "type": "function"
    },
    {
      "inputs": [
        {
          "internalType": "address",
          "name": "operator",
          "type": "address"
        },
        {
          "internalType": "bool",
          "name": "approved",
          "type": "bool"
        }
      ],
      "name": "setApprovalForAll",
      "outputs": [],
      "stateMutability": "nonpayable",
      "type": "function"
    },
    {
      "inputs": [
        {
          "internalType": "bytes4",
          "name": "interfaceId",
          "type": "bytes4"
        }
      ],
      "name": "supportsInterface",
      "outputs": [
        {
          "internalType": "bool",
          "name": "",
          "type": "bool"
        }
      ],
      "stateMutability": "view",
      "type": "function",
      "constant": true
    },
    {
      "inputs": [],
      "name": "symbol",
      "outputs": [
        {
          "internalType": "string",
          "name": "",
          "type": "string"
        }
      ],
      "stateMutability": "view",
      "type": "function",
      "constant": true
    },
    {
      "inputs": [],
      "name": "tokenCounter",
      "outputs": [
        {
          "internalType": "uint256",
          "name": "",
          "type": "uint256"
        }
      ],
      "stateMutability": "view",
      "type": "function",
      "constant": true
    },
    {
      "inputs": [
        {
          "internalType": "uint256",
          "name": "tokenId",
          "type": "uint256"
        }
      ],
      "name": "tokenURI",
      "outputs": [
        {
          "internalType": "string",
          "name": "",
          "type": "string"
        }
      ],
      "stateMutability": "view",
      "type": "function",
      "constant": true
    },
    {
      "inputs": [
        {
          "internalType": "address",
          "name": "from",
          "type": "address"
        },
        {
          "internalType": "address",
          "name": "to",
          "type": "address"
        },
        {
          "internalType": "uint256",
          "name": "tokenId",
          "type": "uint256"
        }
      ],
      "name": "transferFrom",
      "outputs": [],
      "stateMutability": "nonpayable",
      "type": "function"
    },
    {
      "inputs": [],
      "name": "mint",
      "outputs": [],
      "stateMutability": "payable",
      "type": "function",
      "payable": true
    }
  ],
  "bytecode": "0x6080604052600060065566b1a2bc2ec500006008553480156200002157600080fd5b5060405162002dac38038062002dac833981810160405281019062000047919062000315565b82828160009080519060200190620000619291906200008d565b5080600190805190602001906200007a9291906200008d565b5050508060078190555050505062000414565b8280546200009b90620003de565b90600052602060002090601f016020900481019282620000bf57600085556200010b565b82601f10620000da57805160ff19168380011785556200010b565b828001600101855582156200010b579182015b828111156200010a578251825591602001919060010190620000ed565b5b5090506200011a91906200011e565b5090565b5b80821115620001395760008160009055506001016200011f565b5090565b6000604051905090565b600080fd5b600080fd5b600080fd5b600080fd5b6000601f19601f8301169050919050565b7f4e487b7100000000000000000000000000000000000000000000000000000000600052604160045260246000fd5b620001a6826200015b565b810181811067ffffffffffffffff82111715620001c857620001c76200016c565b5b80604052505050565b6000620001dd6200013d565b9050620001eb82826200019b565b919050565b600067ffffffffffffffff8211156200020e576200020d6200016c565b5b62000219826200015b565b9050602081019050919050565b60005b838110156200024657808201518184015260208101905062000229565b8381111562000256576000848401525b50505050565b6000620002736200026d84620001f0565b620001d1565b90508281526020810184848401111562000292576200029162000156565b5b6200029f84828562000226565b509392505050565b600082601f830112620002bf57620002be62000151565b5b8151620002d18482602086016200025c565b91505092915050565b6000819050919050565b620002ef81620002da565b8114620002fb57600080fd5b50565b6000815190506200030f81620002e4565b92915050565b60008060006060848603121562000331576200033062000147565b5b600084015167ffffffffffffffff8111156200035257620003516200014c565b5b6200036086828701620002a7565b935050602084015167ffffffffffffffff8111156200038457620003836200014c565b5b6200039286828701620002a7565b9250506040620003a586828701620002fe565b9150509250925092565b7f4e487b7100000000000000000000000000000000000000000000000000000000600052602260045260246000fd5b60006002820490506001821680620003f757607f821691505b602082108114156200040e576200040d620003af565b5b50919050565b61298880620004246000396000f3fe6080604052600436106100fe5760003560e01c80636817c76c11610095578063b88d4fde11610064578063b88d4fde14610326578063c87b56dd1461034f578063d082e3811461038c578063e8315742146103b7578063e985e9c5146103e2576100fe565b80636817c76c1461026a57806370a082311461029557806395d89b41146102d2578063a22cb465146102fd576100fe565b80631249c58b116100d15780631249c58b146101d157806323b872dd146101db57806342842e0e146102045780636352211e1461022d576100fe565b806301ffc9a71461010357806306fdde0314610140578063081812fc1461016b578063095ea7b3146101a8575b600080fd5b34801561010f57600080fd5b5061012a6004803603810190610125919061180d565b61041f565b6040516101379190611855565b60405180910390f35b34801561014c57600080fd5b50610155610501565b6040516101629190611909565b60405180910390f35b34801561017757600080fd5b50610192600480360381019061018d9190611961565b610593565b60405161019f91906119cf565b60405180910390f35b3480156101b457600080fd5b506101cf60048036038101906101ca9190611a16565b610618565b005b6101d9610730565b005b3480156101e757600080fd5b5061020260048036038101906101fd9190611a56565b6107e0565b005b34801561021057600080fd5b5061022b60048036038101906102269190611a56565b610840565b005b34801561023957600080fd5b50610254600480360381019061024f9190611961565b610860565b60405161026191906119cf565b60405180910390f35b34801561027657600080fd5b5061027f610912565b60405161028c9190611ab8565b60405180910390f35b3480156102a157600080fd5b506102bc60048036038101906102b79190611ad3565b610918565b6040516102c99190611ab8565b60405180910390f35b3480156102de57600080fd5b506102e76109d0565b6040516102f49190611909565b60405180910390f35b34801561030957600080fd5b50610324600480360381019061031f9190611b2c565b610a62565b005b34801561033257600080fd5b5061034d60048036038101906103489190611ca1565b610a78565b005b34801561035b57600080fd5b5061037660048036038101906103719190611961565b610ada565b6040516103839190611909565b60405180910390f35b34801561039857600080fd5b506103a1610b81565b6040516103ae9190611ab8565b60405180910390f35b3480156103c357600080fd5b506103cc610b87565b6040516103d99190611ab8565b60405180910390f35b3480156103ee57600080fd5b5061040960048036038101906104049190611d24565b610b8d565b6040516104169190611855565b60405180910390f35b60007f80ac58cd000000000000000000000000000000000000000000000000000000007bffffffffffffffffffffffffffffffffffffffffffffffffffffffff1916827bffffffffffffffffffffffffffffffffffffffffffffffffffffffff191614806104ea57507f5b5e139f000000000000000000000000000000000000000000000000000000007bffffffffffffffffffffffffffffffffffffffffffffffffffffffff1916827bffffffffffffffffffffffffffffffffffffffffffffffffffffffff1916145b806104fa57506104f982610c21565b5b9050919050565b60606000805461051090611d93565b80601f016020809104026020016040519081016040528092919081815260200182805461053c90611d93565b80156105895780601f1061055e57610100808354040283529160200191610589565b820191906000526020600020905b81548152906001019060200180831161056c57829003601f168201915b5050505050905090565b600061059e82610c8b565b6105dd576040517f08c379a00000000000000000000000000000000000000000000000000000000081526004016105d490611e37565b60405180910390fd5b6004600083815260200190815260200160002060009054906101000a900473ffffffffffffffffffffffffffffffffffffffff169050919050565b600061062382610860565b90508073ffffffffffffffffffffffffffffffffffffffff168373ffffffffffffffffffffffffffffffffffffffff161415610694576040517f08c379a000000000000000000000000000000000000000000000000000000000815260040161068b90611ec9565b60405180910390fd5b8073ffffffffffffffffffffffffffffffffffffffff166106b3610cf7565b73ffffffffffffffffffffffffffffffffffffffff1614806106e257506106e1816106dc610cf7565b610b8d565b5b610721576040517f08c379a000000000000000000000000000000000000000000000000000000000815260040161071890611f5b565b60405180910390fd5b61072b8383610cff565b505050565b6008543414610774576040517f08c379a000000000000000000000000000000000000000000000000000000000815260040161076b90611fed565b60405180910390fd5b600754600654106107ba576040517f08c379a00000000000000000000000000000000000000000000000000000000081526004016107b190612059565b60405180910390fd5b6107c633600654610db8565b600660008154809291906107d9906120a8565b9190505550565b6107f16107eb610cf7565b82610f86565b610830576040517f08c379a000000000000000000000000000000000000000000000000000000000815260040161082790612163565b60405180910390fd5b61083b838383611064565b505050565b61085b83838360405180602001604052806000815250610a78565b505050565b6000806002600084815260200190815260200160002060009054906101000a900473ffffffffffffffffffffffffffffffffffffffff169050600073ffffffffffffffffffffffffffffffffffffffff168173ffffffffffffffffffffffffffffffffffffffff161415610909576040517f08c379a0000000000000000000000000000000000000000000000000000000008152600401610900906121f5565b60405180910390fd5b80915050919050565b60085481565b60008073ffffffffffffffffffffffffffffffffffffffff168273ffffffffffffffffffffffffffffffffffffffff161415610989576040517f08c379a000000000000000000000000000000000000000000000000000000000815260040161098090612287565b60405180910390fd5b600360008373ffffffffffffffffffffffffffffffffffffffff1673ffffffffffffffffffffffffffffffffffffffff168152602001908152602001600020549050919050565b6060600180546109df90611d93565b80601f0160208091040260200160405190810160405280929190818152602001828054610a0b90611d93565b8015610a585780601f10610a2d57610100808354040283529160200191610a58565b820191906000526020600020905b815481529060010190602001808311610a3b57829003601f168201915b5050505050905090565b610a74610a6d610cf7565b83836112c0565b5050565b610a89610a83610cf7565b83610f86565b610ac8576040517f08c379a0000000000000000000000000000000000000000000000000000000008152600401610abf90612163565b60405180910390fd5b610ad48484848461142d565b50505050565b6060610ae582610c8b565b610b24576040517f08c379a0000000000000000000000000000000000000000000000000000000008152600401610b1b90612319565b60405180910390fd5b6000610b2e611489565b90506000815111610b4e5760405180602001604052806000815250610b79565b80610b58846114a0565b604051602001610b69929190612375565b6040516020818303038152906040525b915050919050565b60065481565b60075481565b6000600560008473ffffffffffffffffffffffffffffffffffffffff1673ffffffffffffffffffffffffffffffffffffffff16815260200190815260200160002060008373ffffffffffffffffffffffffffffffffffffffff1673ffffffffffffffffffffffffffffffffffffffff16815260200190815260200160002060009054906101000a900460ff16905092915050565b60007f01ffc9a7000000000000000000000000000000000000000000000000000000007bffffffffffffffffffffffffffffffffffffffffffffffffffffffff1916827bffffffffffffffffffffffffffffffffffffffffffffffffffffffff1916149050919050565b60008073ffffffffffffffffffffffffffffffffffffffff166002600084815260200190815260200160002060009054906101000a900473ffffffffffffffffffffffffffffffffffffffff1673ffffffffffffffffffffffffffffffffffffffff1614159050919050565b600033905090565b816004600083815260200190815260200160002060006101000a81548173ffffffffffffffffffffffffffffffffffffffff021916908373ffffffffffffffffffffffffffffffffffffffff160217905550808273ffffffffffffffffffffffffffffffffffffffff16610d7283610860565b73ffffffffffffffffffffffffffffffffffffffff167f8c5be1e5ebec7d5bd14f71427d1e84f3dd0314c0f7b2291e5b200ac8c7c3b92560405160405180910390a45050565b600073ffffffffffffffffffffffffffffffffffffffff168273ffffffffffffffffffffffffffffffffffffffff161415610e28576040517f08c379a0000000000000000000000000000000000000000000000000000000008152600401610e1f906123e5565b60405180910390fd5b610e3181610c8b565b15610e71576040517f08c379a0000000000000000000000000000000000000000000000000000000008152600401610e6890612451565b60405180910390fd5b610e7d60008383611601565b6001600360008473ffffffffffffffffffffffffffffffffffffffff1673ffffffffffffffffffffffffffffffffffffffff1681526020019081526020016000206000828254610ecd9190612471565b92505081905550816002600083815260200190815260200160002060006101000a81548173ffffffffffffffffffffffffffffffffffffffff021916908373ffffffffffffffffffffffffffffffffffffffff160217905550808273ffffffffffffffffffffffffffffffffffffffff16600073ffffffffffffffffffffffffffffffffffffffff167fddf252ad1be2c89b69c2b068fc378daa952ba7f163c4a11628f55a4df523b3ef60405160405180910390a45050565b6000610f9182610c8b565b610fd0576040517f08c379a0000000000000000000000000000000000000000000000000000000008152600401610fc790612539565b60405180910390fd5b6000610fdb83610860565b90508073ffffffffffffffffffffffffffffffffffffffff168473ffffffffffffffffffffffffffffffffffffffff16148061104a57508373ffffffffffffffffffffffffffffffffffffffff1661103284610593565b73ffffffffffffffffffffffffffffffffffffffff16145b8061105b575061105a8185610b8d565b5b91505092915050565b8273ffffffffffffffffffffffffffffffffffffffff1661108482610860565b73ffffffffffffffffffffffffffffffffffffffff16146110da576040517f08c379a00000000000000000000000000000000000000000000000000000000081526004016110d1906125cb565b60405180910390fd5b600073ffffffffffffffffffffffffffffffffffffffff168273ffffffffffffffffffffffffffffffffffffffff16141561114a576040517f08c379a00000000000000000000000000000000000000000000000000000000081526004016111419061265d565b60405180910390fd5b611155838383611601565b611160600082610cff565b6001600360008573ffffffffffffffffffffffffffffffffffffffff1673ffffffffffffffffffffffffffffffffffffffff16815260200190815260200160002060008282546111b0919061267d565b925050819055506001600360008473ffffffffffffffffffffffffffffffffffffffff1673ffffffffffffffffffffffffffffffffffffffff16815260200190815260200160002060008282546112079190612471565b92505081905550816002600083815260200190815260200160002060006101000a81548173ffffffffffffffffffffffffffffffffffffffff021916908373ffffffffffffffffffffffffffffffffffffffff160217905550808273ffffffffffffffffffffffffffffffffffffffff168473ffffffffffffffffffffffffffffffffffffffff167fddf252ad1be2c89b69c2b068fc378daa952ba7f163c4a11628f55a4df523b3ef60405160405180910390a4505050565b8173ffffffffffffffffffffffffffffffffffffffff168373ffffffffffffffffffffffffffffffffffffffff16141561132f576040517f08c379a0000000000000000000000000000000000000000000000000000000008152600401611326906126fd565b60405180910390fd5b80600560008573ffffffffffffffffffffffffffffffffffffffff1673ffffffffffffffffffffffffffffffffffffffff16815260200190815260200160002060008473ffffffffffffffffffffffffffffffffffffffff1673ffffffffffffffffffffffffffffffffffffffff16815260200190815260200160002060006101000a81548160ff0219169083151502179055508173ffffffffffffffffffffffffffffffffffffffff168373ffffffffffffffffffffffffffffffffffffffff167f17307eab39ab6107e8899845ad3d59bd9653f200f220920489ca2b5937696c31836040516114209190611855565b60405180910390a3505050565b611438848484611064565b61144484848484611606565b611483576040517f08c379a000000000000000000000000000000000000000000000000000000000815260040161147a9061278f565b60405180910390fd5b50505050565b606060405180602001604052806000815250905090565b606060008214156114e8576040518060400160405280600181526020017f300000000000000000000000000000000000000000000000000000000000000081525090506115fc565b600082905060005b6000821461151a578080611503906120a8565b915050600a8261151391906127de565b91506114f0565b60008167ffffffffffffffff81111561153657611535611b76565b5b6040519080825280601f01601f1916602001820160405280156115685781602001600182028036833780820191505090505b5090505b600085146115f557600182611581919061267d565b9150600a85611590919061280f565b603061159c9190612471565b60f81b8183815181106115b2576115b1612840565b5b60200101907effffffffffffffffffffffffffffffffffffffffffffffffffffffffffffff1916908160001a905350600a856115ee91906127de565b945061156c565b8093505050505b919050565b505050565b60006116278473ffffffffffffffffffffffffffffffffffffffff1661178e565b15611781578373ffffffffffffffffffffffffffffffffffffffff1663150b7a02611650610cf7565b8786866040518563ffffffff1660e01b815260040161167294939291906128c4565b6020604051808303816000875af19250505080156116ae57506040513d601f19601f820116820180604052508101906116ab9190612925565b60015b611731573d80600081146116de576040519150601f19603f3d011682016040523d82523d6000602084013e6116e3565b606091505b50600081511415611729576040517f08c379a00000000000000000000000000000000000000000000000000000000081526004016117209061278f565b60405180910390fd5b805181602001fd5b63150b7a0260e01b7bffffffffffffffffffffffffffffffffffffffffffffffffffffffff1916817bffffffffffffffffffffffffffffffffffffffffffffffffffffffff191614915050611786565b600190505b949350505050565b600080823b905060008111915050919050565b6000604051905090565b600080fd5b600080fd5b60007fffffffff0000000000000000000000000000000000000000000000000000000082169050919050565b6117ea816117b5565b81146117f557600080fd5b50565b600081359050611807816117e1565b92915050565b600060208284031215611823576118226117ab565b5b6000611831848285016117f8565b91505092915050565b60008115159050919050565b61184f8161183a565b82525050565b600060208201905061186a6000830184611846565b92915050565b600081519050919050565b600082825260208201905092915050565b60005b838110156118aa57808201518184015260208101905061188f565b838111156118b9576000848401525b50505050565b6000601f19601f8301169050919050565b60006118db82611870565b6118e5818561187b565b93506118f581856020860161188c565b6118fe816118bf565b840191505092915050565b6000602082019050818103600083015261192381846118d0565b905092915050565b6000819050919050565b61193e8161192b565b811461194957600080fd5b50565b60008135905061195b81611935565b92915050565b600060208284031215611977576119766117ab565b5b60006119858482850161194c565b91505092915050565b600073ffffffffffffffffffffffffffffffffffffffff82169050919050565b60006119b98261198e565b9050919050565b6119c9816119ae565b82525050565b60006020820190506119e460008301846119c0565b92915050565b6119f3816119ae565b81146119fe57600080fd5b50565b600081359050611a10816119ea565b92915050565b60008060408385031215611a2d57611a2c6117ab565b5b6000611a3b85828601611a01565b9250506020611a4c8582860161194c565b9150509250929050565b600080600060608486031215611a6f57611a6e6117ab565b5b6000611a7d86828701611a01565b9350506020611a8e86828701611a01565b9250506040611a9f8682870161194c565b9150509250925092565b611ab28161192b565b82525050565b6000602082019050611acd6000830184611aa9565b92915050565b600060208284031215611ae957611ae86117ab565b5b6000611af784828501611a01565b91505092915050565b611b098161183a565b8114611b1457600080fd5b50565b600081359050611b2681611b00565b92915050565b60008060408385031215611b4357611b426117ab565b5b6000611b5185828601611a01565b9250506020611b6285828601611b17565b9150509250929050565b600080fd5b600080fd5b7f4e487b7100000000000000000000000000000000000000000000000000000000600052604160045260246000fd5b611bae826118bf565b810181811067ffffffffffffffff82111715611bcd57611bcc611b76565b5b80604052505050565b6000611be06117a1565b9050611bec8282611ba5565b919050565b600067ffffffffffffffff821115611c0c57611c0b611b76565b5b611c15826118bf565b9050602081019050919050565b82818337600083830152505050565b6000611c44611c3f84611bf1565b611bd6565b905082815260208101848484011115611c6057611c5f611b71565b5b611c6b848285611c22565b509392505050565b600082601f830112611c8857611c87611b6c565b5b8135611c98848260208601611c31565b91505092915050565b60008060008060808587031215611cbb57611cba6117ab565b5b6000611cc987828801611a01565b9450506020611cda87828801611a01565b9350506040611ceb8782880161194c565b925050606085013567ffffffffffffffff811115611d0c57611d0b6117b0565b5b611d1887828801611c73565b91505092959194509250565b60008060408385031215611d3b57611d3a6117ab565b5b6000611d4985828601611a01565b9250506020611d5a85828601611a01565b9150509250929050565b7f4e487b7100000000000000000000000000000000000000000000000000000000600052602260045260246000fd5b60006002820490506001821680611dab57607f821691505b60208210811415611dbf57611dbe611d64565b5b50919050565b7f4552433732313a20617070726f76656420717565727920666f72206e6f6e657860008201527f697374656e7420746f6b656e0000000000000000000000000000000000000000602082015250565b6000611e21602c8361187b565b9150611e2c82611dc5565b604082019050919050565b60006020820190508181036000830152611e5081611e14565b9050919050565b7f4552433732313a20617070726f76616c20746f2063757272656e74206f776e6560008201527f7200000000000000000000000000000000000000000000000000000000000000602082015250565b6000611eb360218361187b565b9150611ebe82611e57565b604082019050919050565b60006020820190508181036000830152611ee281611ea6565b9050919050565b7f4552433732313a20617070726f76652063616c6c6572206973206e6f74206f7760008201527f6e6572206e6f7220617070726f76656420666f7220616c6c0000000000000000602082015250565b6000611f4560388361187b565b9150611f5082611ee9565b604082019050919050565b60006020820190508181036000830152611f7481611f38565b9050919050565b7f57726f6e6720616d6f756e742076616c75652073656e7420746f2066756e637460008201527f696f6e0000000000000000000000000000000000000000000000000000000000602082015250565b6000611fd760238361187b565b9150611fe282611f7b565b604082019050919050565b6000602082019050818103600083015261200681611fca565b9050919050565b7f416c6c20746f6b656e73206d696e746564000000000000000000000000000000600082015250565b600061204360118361187b565b915061204e8261200d565b602082019050919050565b6000602082019050818103600083015261207281612036565b9050919050565b7f4e487b7100000000000000000000000000000000000000000000000000000000600052601160045260246000fd5b60006120b38261192b565b91507fffffffffffffffffffffffffffffffffffffffffffffffffffffffffffffffff8214156120e6576120e5612079565b5b600182019050919050565b7f4552433732313a207472616e736665722063616c6c6572206973206e6f74206f60008201527f776e6572206e6f7220617070726f766564000000000000000000000000000000602082015250565b600061214d60318361187b565b9150612158826120f1565b604082019050919050565b6000602082019050818103600083015261217c81612140565b9050919050565b7f4552433732313a206f776e657220717565727920666f72206e6f6e657869737460008201527f656e7420746f6b656e0000000000000000000000000000000000000000000000602082015250565b60006121df60298361187b565b91506121ea82612183565b604082019050919050565b6000602082019050818103600083015261220e816121d2565b9050919050565b7f4552433732313a2062616c616e636520717565727920666f7220746865207a6560008201527f726f206164647265737300000000000000000000000000000000000000000000602082015250565b6000612271602a8361187b565b915061227c82612215565b604082019050919050565b600060208201905081810360008301526122a081612264565b9050919050565b7f4552433732314d657461646174613a2055524920717565727920666f72206e6f60008201527f6e6578697374656e7420746f6b656e0000000000000000000000000000000000602082015250565b6000612303602f8361187b565b915061230e826122a7565b604082019050919050565b60006020820190508181036000830152612332816122f6565b9050919050565b600081905092915050565b600061234f82611870565b6123598185612339565b935061236981856020860161188c565b80840191505092915050565b60006123818285612344565b915061238d8284612344565b91508190509392505050565b7f4552433732313a206d696e7420746f20746865207a65726f2061646472657373600082015250565b60006123cf60208361187b565b91506123da82612399565b602082019050919050565b600060208201905081810360008301526123fe816123c2565b9050919050565b7f4552433732313a20746f6b656e20616c7265616479206d696e74656400000000600082015250565b600061243b601c8361187b565b915061244682612405565b602082019050919050565b6000602082019050818103600083015261246a8161242e565b9050919050565b600061247c8261192b565b91506124878361192b565b9250827fffffffffffffffffffffffffffffffffffffffffffffffffffffffffffffffff038211156124bc576124bb612079565b5b828201905092915050565b7f4552433732313a206f70657261746f7220717565727920666f72206e6f6e657860008201527f697374656e7420746f6b656e0000000000000000000000000000000000000000602082015250565b6000612523602c8361187b565b915061252e826124c7565b604082019050919050565b6000602082019050818103600083015261255281612516565b9050919050565b7f4552433732313a207472616e73666572206f6620746f6b656e2074686174206960008201527f73206e6f74206f776e0000000000000000000000000000000000000000000000602082015250565b60006125b560298361187b565b91506125c082612559565b604082019050919050565b600060208201905081810360008301526125e4816125a8565b9050919050565b7f4552433732313a207472616e7366657220746f20746865207a65726f2061646460008201527f7265737300000000000000000000000000000000000000000000000000000000602082015250565b600061264760248361187b565b9150612652826125eb565b604082019050919050565b600060208201905081810360008301526126768161263a565b9050919050565b60006126888261192b565b91506126938361192b565b9250828210156126a6576126a5612079565b5b828203905092915050565b7f4552433732313a20617070726f766520746f2063616c6c657200000000000000600082015250565b60006126e760198361187b565b91506126f2826126b1565b602082019050919050565b60006020820190508181036000830152612716816126da565b9050919050565b7f4552433732313a207472616e7366657220746f206e6f6e20455243373231526560008201527f63656976657220696d706c656d656e7465720000000000000000000000000000602082015250565b600061277960328361187b565b91506127848261271d565b604082019050919050565b600060208201905081810360008301526127a88161276c565b9050919050565b7f4e487b7100000000000000000000000000000000000000000000000000000000600052601260045260246000fd5b60006127e98261192b565b91506127f48361192b565b925082612804576128036127af565b5b828204905092915050565b600061281a8261192b565b91506128258361192b565b925082612835576128346127af565b5b828206905092915050565b7f4e487b7100000000000000000000000000000000000000000000000000000000600052603260045260246000fd5b600081519050919050565b600082825260208201905092915050565b60006128968261286f565b6128a0818561287a565b93506128b081856020860161188c565b6128b9816118bf565b840191505092915050565b60006080820190506128d960008301876119c0565b6128e660208301866119c0565b6128f36040830185611aa9565b8181036060830152612905818461288b565b905095945050505050565b60008151905061291f816117e1565b92915050565b60006020828403121561293b5761293a6117ab565b5b600061294984828501612910565b9150509291505056fea2646970667358221220f90f673cb30bcb573cef42ec8c202305a2d14bdd602d100e1834882eeb9c450264736f6c634300080b0033",
  "immutableReferences": {},
  "source": "// SPDX-License-Identifier: MIT\r\npragma solidity ^0.8.0;\r\n\r\nimport \"@openzeppelin/contracts/token/ERC721/ERC721.sol\";\r\n\r\ncontract MyNFT is ERC721 {\r\n\r\n    uint256 public tokenCounter = 0;\r\n    uint256 public maxTokens;\r\n    uint256 public mintPrice = 0.05 ether;\r\n\r\n    constructor(string memory _name, string memory _symbol, uint256 _maxTokens) ERC721(_name, _symbol) {\r\n        maxTokens = _maxTokens;\r\n    }\r\n\r\n    function mint() public payable {\r\n        require(msg.value == mintPrice, \"Wrong amount value sent to function\");\r\n        require(tokenCounter < maxTokens, \"All tokens minted\");\r\n        _mint(msg.sender, tokenCounter);\r\n\r\n        tokenCounter++;\r\n    }\r\n}",
  "sourcePath": "C:\\Users\\Qwellcode\\Documents\\hello-blockchain\\contracts\\MyNFT.sol",
  "compiler": {
    "name": "solc",
    "version": "0.8.11+commit.d7f03943.Emscripten.clang"
  },
  "schemaVersion": "3.4.4",
  "updatedAt": "2022-02-04T11:23:44.366Z",
  "networkType": "ethereum",
  "devdoc": {
    "kind": "dev",
    "methods": {
      "approve(address,uint256)": {
        "details": "See {IERC721-approve}."
      },
      "balanceOf(address)": {
        "details": "See {IERC721-balanceOf}."
      },
      "getApproved(uint256)": {
        "details": "See {IERC721-getApproved}."
      },
      "isApprovedForAll(address,address)": {
        "details": "See {IERC721-isApprovedForAll}."
      },
      "name()": {
        "details": "See {IERC721Metadata-name}."
      },
      "ownerOf(uint256)": {
        "details": "See {IERC721-ownerOf}."
      },
      "safeTransferFrom(address,address,uint256)": {
        "details": "See {IERC721-safeTransferFrom}."
      },
      "safeTransferFrom(address,address,uint256,bytes)": {
        "details": "See {IERC721-safeTransferFrom}."
      },
      "setApprovalForAll(address,bool)": {
        "details": "See {IERC721-setApprovalForAll}."
      },
      "supportsInterface(bytes4)": {
        "details": "See {IERC165-supportsInterface}."
      },
      "symbol()": {
        "details": "See {IERC721Metadata-symbol}."
      },
      "tokenURI(uint256)": {
        "details": "See {IERC721Metadata-tokenURI}."
      },
      "transferFrom(address,address,uint256)": {
        "details": "See {IERC721-transferFrom}."
      }
    },
    "version": 1
  },
  "userdoc": {
    "kind": "user",
    "methods": {},
    "version": 1
  }
}